{
  "_format": "hh-sol-artifact-1",
  "contractName": "ToDo",
  "sourceName": "contracts/ToDo.sol",
  "abi": [
    {
      "anonymous": false,
      "inputs": [
        {
          "indexed": true,
          "internalType": "address",
          "name": "user",
          "type": "address"
        },
        {
          "indexed": false,
          "internalType": "uint256",
          "name": "id",
          "type": "uint256"
        },
        {
          "indexed": false,
          "internalType": "string",
          "name": "content",
          "type": "string"
        }
      ],
      "name": "TaskCreated",
      "type": "event"
    },
    {
      "anonymous": false,
      "inputs": [
        {
          "indexed": true,
          "internalType": "address",
          "name": "user",
          "type": "address"
        },
        {
          "indexed": false,
          "internalType": "uint256",
          "name": "id",
          "type": "uint256"
        }
      ],
      "name": "TaskDeleted",
      "type": "event"
    },
    {
      "anonymous": false,
      "inputs": [
        {
          "indexed": true,
          "internalType": "address",
          "name": "user",
          "type": "address"
        },
        {
          "indexed": false,
          "internalType": "uint256",
          "name": "id",
          "type": "uint256"
        },
        {
          "indexed": false,
          "internalType": "bool",
          "name": "completed",
          "type": "bool"
        }
      ],
      "name": "TaskUpdated",
      "type": "event"
    },
    {
      "inputs": [
        {
          "internalType": "string",
          "name": "_content",
          "type": "string"
        }
      ],
      "name": "createTask",
      "outputs": [],
      "stateMutability": "nonpayable",
      "type": "function"
    },
    {
      "inputs": [
        {
          "internalType": "uint256",
          "name": "_id",
          "type": "uint256"
        }
      ],
      "name": "deleteTask",
      "outputs": [],
      "stateMutability": "nonpayable",
      "type": "function"
    },
    {
      "inputs": [],
      "name": "getTasks",
      "outputs": [
        {
          "components": [
            {
              "internalType": "uint256",
              "name": "id",
              "type": "uint256"
            },
            {
              "internalType": "string",
              "name": "content",
              "type": "string"
            },
            {
              "internalType": "bool",
              "name": "completed",
              "type": "bool"
            }
          ],
          "internalType": "struct ToDo.Task[]",
          "name": "",
          "type": "tuple[]"
        }
      ],
      "stateMutability": "view",
      "type": "function"
    },
    {
      "inputs": [
        {
          "internalType": "uint256",
          "name": "_id",
          "type": "uint256"
        }
      ],
      "name": "toggleTask",
      "outputs": [],
      "stateMutability": "nonpayable",
      "type": "function"
    }
  ],
  "bytecode": "0x6080604052600060015534801561001557600080fd5b50611099806100256000396000f3fe608060405234801561001057600080fd5b506004361061004c5760003560e01c806304a87e3814610051578063111002aa1461006f578063560f31921461008b578063613137a4146100a7575b600080fd5b6100596100c3565b6040516100669190610937565b60405180910390f35b610089600480360381019061008491906109c8565b610215565b005b6100a560048036038101906100a09190610a41565b610398565b005b6100c160048036038101906100bc9190610a41565b610579565b005b60606000803373ffffffffffffffffffffffffffffffffffffffff1673ffffffffffffffffffffffffffffffffffffffff168152602001908152602001600020805480602002602001604051908101604052809291908181526020016000905b8282101561020c57838290600052602060002090600302016040518060600160405290816000820154815260200160018201805461016090610a9d565b80601f016020809104026020016040519081016040528092919081815260200182805461018c90610a9d565b80156101d95780601f106101ae576101008083540402835291602001916101d9565b820191906000526020600020905b8154815290600101906020018083116101bc57829003601f168201915b505050505081526020016002820160009054906101000a900460ff16151515158152505081526020019060010190610123565b50505050905090565b60006040518060600160405280600154815260200184848080601f016020809104026020016040519081016040528093929190818152602001838380828437600081840152601f19601f8201169050808301925050505050505081526020016000151581525090506000803373ffffffffffffffffffffffffffffffffffffffff1673ffffffffffffffffffffffffffffffffffffffff1681526020019081526020016000208190806001815401808255809150506001900390600052602060002090600302016000909190919091506000820151816000015560208201518160010190816103049190610ca9565b5060408201518160020160006101000a81548160ff02191690831515021790555050503373ffffffffffffffffffffffffffffffffffffffff167fa211005f5319202ee7ab6815fc340564635fb1eee9bc5a55aa10048c5b471dc4600154858560405161037393929190610dd7565b60405180910390a26001600081548092919061038e90610e38565b9190505550505050565b60008060003373ffffffffffffffffffffffffffffffffffffffff1673ffffffffffffffffffffffffffffffffffffffff168152602001908152602001600020905060005b818054905081101561057357828282815481106103fd576103fc610e80565b5b906000526020600020906003020160000154036105605781600183805490506104269190610eaf565b8154811061043757610436610e80565b5b906000526020600020906003020182828154811061045857610457610e80565b5b906000526020600020906003020160008201548160000155600182018160010190816104849190610ef9565b506002820160009054906101000a900460ff168160020160006101000a81548160ff021916908315150217905550905050818054806104c6576104c5610fe1565b5b60019003818190600052602060002090600302016000808201600090556001820160006104f39190610704565b6002820160006101000a81549060ff0219169055505090553373ffffffffffffffffffffffffffffffffffffffff167fd1bc87501afcaa22b7f6481dac99ed45fbe02321873ca9b55c1f41b9d78b8fb3846040516105519190611010565b60405180910390a25050610576565b808061056b90610e38565b9150506103dd565b50505b50565b60008060003373ffffffffffffffffffffffffffffffffffffffff1673ffffffffffffffffffffffffffffffffffffffff168152602001908152602001600020905060005b81805490508110156106fe57828282815481106105de576105dd610e80565b5b906000526020600020906003020160000154036106eb5781818154811061060857610607610e80565b5b906000526020600020906003020160020160009054906101000a900460ff161582828154811061063b5761063a610e80565b5b906000526020600020906003020160020160006101000a81548160ff0219169083151502179055503373ffffffffffffffffffffffffffffffffffffffff167f0b84ca8078e3a84f7f0c4a1b7135e611ae087be791d59ca769c21369ba63bfa1848484815481106106af576106ae610e80565b5b906000526020600020906003020160020160009054906101000a900460ff166040516106dc92919061103a565b60405180910390a25050610701565b80806106f690610e38565b9150506105be565b50505b50565b50805461071090610a9d565b6000825580601f106107225750610741565b601f0160209004906000526020600020908101906107409190610744565b5b50565b5b8082111561075d576000816000905550600101610745565b5090565b600081519050919050565b600082825260208201905092915050565b6000819050602082019050919050565b6000819050919050565b6107a08161078d565b82525050565b600081519050919050565b600082825260208201905092915050565b60005b838110156107e05780820151818401526020810190506107c5565b60008484015250505050565b6000601f19601f8301169050919050565b6000610808826107a6565b61081281856107b1565b93506108228185602086016107c2565b61082b816107ec565b840191505092915050565b60008115159050919050565b61084b81610836565b82525050565b60006060830160008301516108696000860182610797565b506020830151848203602086015261088182826107fd565b91505060408301516108966040860182610842565b508091505092915050565b60006108ad8383610851565b905092915050565b6000602082019050919050565b60006108cd82610761565b6108d7818561076c565b9350836020820285016108e98561077d565b8060005b85811015610925578484038952815161090685826108a1565b9450610911836108b5565b925060208a019950506001810190506108ed565b50829750879550505050505092915050565b6000602082019050818103600083015261095181846108c2565b905092915050565b600080fd5b600080fd5b600080fd5b600080fd5b600080fd5b60008083601f84011261098857610987610963565b5b8235905067ffffffffffffffff8111156109a5576109a4610968565b5b6020830191508360018202830111156109c1576109c061096d565b5b9250929050565b600080602083850312156109df576109de610959565b5b600083013567ffffffffffffffff8111156109fd576109fc61095e565b5b610a0985828601610972565b92509250509250929050565b610a1e8161078d565b8114610a2957600080fd5b50565b600081359050610a3b81610a15565b92915050565b600060208284031215610a5757610a56610959565b5b6000610a6584828501610a2c565b91505092915050565b7f4e487b7100000000000000000000000000000000000000000000000000000000600052602260045260246000fd5b60006002820490506001821680610ab557607f821691505b602082108103610ac857610ac7610a6e565b5b50919050565b7f4e487b7100000000000000000000000000000000000000000000000000000000600052604160045260246000fd5b60008190508160005260206000209050919050565b60006020601f8301049050919050565b600082821b905092915050565b600060088302610b5f7fffffffffffffffffffffffffffffffffffffffffffffffffffffffffffffffff82610b22565b610b698683610b22565b95508019841693508086168417925050509392505050565b6000819050919050565b6000610ba6610ba1610b9c8461078d565b610b81565b61078d565b9050919050565b6000819050919050565b610bc083610b8b565b610bd4610bcc82610bad565b848454610b2f565b825550505050565b600090565b610be9610bdc565b610bf4818484610bb7565b505050565b5b81811015610c1857610c0d600082610be1565b600181019050610bfa565b5050565b601f821115610c5d57610c2e81610afd565b610c3784610b12565b81016020851015610c46578190505b610c5a610c5285610b12565b830182610bf9565b50505b505050565b600082821c905092915050565b6000610c8060001984600802610c62565b1980831691505092915050565b6000610c998383610c6f565b9150826002028217905092915050565b610cb2826107a6565b67ffffffffffffffff811115610ccb57610cca610ace565b5b610cd58254610a9d565b610ce0828285610c1c565b600060209050601f831160018114610d135760008415610d01578287015190505b610d0b8582610c8d565b865550610d73565b601f198416610d2186610afd565b60005b82811015610d4957848901518255600182019150602085019450602081019050610d24565b86831015610d665784890151610d62601f891682610c6f565b8355505b6001600288020188555050505b505050505050565b610d848161078d565b82525050565b600082825260208201905092915050565b82818337600083830152505050565b6000610db68385610d8a565b9350610dc3838584610d9b565b610dcc836107ec565b840190509392505050565b6000604082019050610dec6000830186610d7b565b8181036020830152610dff818486610daa565b9050949350505050565b7f4e487b7100000000000000000000000000000000000000000000000000000000600052601160045260246000fd5b6000610e438261078d565b91507fffffffffffffffffffffffffffffffffffffffffffffffffffffffffffffffff8203610e7557610e74610e09565b5b600182019050919050565b7f4e487b7100000000000000000000000000000000000000000000000000000000600052603260045260246000fd5b6000610eba8261078d565b9150610ec58361078d565b9250828203905081811115610edd57610edc610e09565b5b92915050565b600081549050610ef281610a9d565b9050919050565b818103610f07575050610fdf565b610f1082610ee3565b67ffffffffffffffff811115610f2957610f28610ace565b5b610f338254610a9d565b610f3e828285610c1c565b6000601f831160018114610f6d5760008415610f5b578287015490505b610f658582610c8d565b865550610fd8565b601f198416610f7b87610afd565b9650610f8686610afd565b60005b82811015610fae57848901548255600182019150600185019450602081019050610f89565b86831015610fcb5784890154610fc7601f891682610c6f565b8355505b6001600288020188555050505b5050505050505b565b7f4e487b7100000000000000000000000000000000000000000000000000000000600052603160045260246000fd5b60006020820190506110256000830184610d7b565b92915050565b61103481610836565b82525050565b600060408201905061104f6000830185610d7b565b61105c602083018461102b565b939250505056fea2646970667358221220755010e8a3f23ccd4ff68630499ac5c22e5e9e694f686829f4910f8b1f55b78064736f6c63430008120033",
  "linkReferences": {},
  "deployedLinkReferences": {}
}